{
  "contractName": "LotteryContract",
  "abi": [
    {
      "inputs": [],
      "payable": false,
      "stateMutability": "nonpayable",
      "type": "constructor"
    },
    {
      "anonymous": false,
      "inputs": [
        {
          "indexed": true,
          "internalType": "address",
          "name": "_purcheser",
          "type": "address"
        },
        {
          "indexed": false,
          "internalType": "uint256",
          "name": "_lotteryNumber",
          "type": "uint256"
        }
      ],
      "name": "Buy",
      "type": "event"
    },
    {
      "anonymous": false,
      "inputs": [
        {
          "indexed": true,
          "internalType": "address",
          "name": "_purcheser",
          "type": "address"
        },
        {
          "indexed": false,
          "internalType": "uint256",
          "name": "_lotteryNumber",
          "type": "uint256"
        }
      ],
      "name": "Reject",
      "type": "event"
    },
    {
      "anonymous": false,
      "inputs": [
        {
          "indexed": true,
          "internalType": "address",
          "name": "_purcheser",
          "type": "address"
        },
        {
          "indexed": false,
          "internalType": "uint256",
          "name": "_lotteryNumber",
          "type": "uint256"
        }
      ],
      "name": "Win",
      "type": "event"
    },
    {
      "constant": true,
      "inputs": [],
      "name": "seller",
      "outputs": [
        {
          "internalType": "address",
          "name": "",
          "type": "address"
        }
      ],
      "payable": false,
      "stateMutability": "view",
      "type": "function"
    },
    {
      "constant": false,
      "inputs": [
        {
          "internalType": "uint256",
          "name": "_number",
          "type": "uint256"
        },
        {
          "internalType": "uint256",
          "name": "_winNumber",
          "type": "uint256"
        }
      ],
      "name": "createLottery",
      "outputs": [],
      "payable": false,
      "stateMutability": "nonpayable",
      "type": "function"
    },
    {
      "constant": false,
      "inputs": [
        {
          "internalType": "uint256",
          "name": "_randNonce",
          "type": "uint256"
        }
      ],
      "name": "buy",
      "outputs": [],
      "payable": false,
      "stateMutability": "nonpayable",
      "type": "function"
    },
    {
      "constant": false,
      "inputs": [
        {
          "internalType": "uint256",
          "name": "_lotteryNumber",
          "type": "uint256"
        }
      ],
      "name": "check",
      "outputs": [],
      "payable": false,
      "stateMutability": "nonpayable",
      "type": "function"
    }
  ],
  "bytecode": "0x6080604052670de0b6b3a764000060015534801561001c57600080fd5b50336000806101000a81548173ffffffffffffffffffffffffffffffffffffffff021916908373ffffffffffffffffffffffffffffffffffffffff16021790555061088c8061006c6000396000f3fe608060405234801561001057600080fd5b506004361061004c5760003560e01c806308551a53146100515780635f72f4501461009b578063d96a094a146100c9578063fe35804e146100f7575b600080fd5b61005961012f565b604051808273ffffffffffffffffffffffffffffffffffffffff1673ffffffffffffffffffffffffffffffffffffffff16815260200191505060405180910390f35b6100c7600480360360208110156100b157600080fd5b8101908080359060200190929190505050610154565b005b6100f5600480360360208110156100df57600080fd5b81019080803590602001909291905050506102eb565b005b61012d6004803603604081101561010d57600080fd5b8101908080359060200190929190803590602001909291905050506105b0565b005b6000809054906101000a900473ffffffffffffffffffffffffffffffffffffffff1681565b803373ffffffffffffffffffffffffffffffffffffffff166002828154811061017957fe5b906000526020600020906002020160010160029054906101000a900473ffffffffffffffffffffffffffffffffffffffff1673ffffffffffffffffffffffffffffffffffffffff16146101cb57600080fd5b600282815481106101d857fe5b906000526020600020906002020160010160019054906101000a900460ff1615610298573373ffffffffffffffffffffffffffffffffffffffff166108fc6001549081150290604051600060405180830381858888f19350505050158015610244573d6000803e3d6000fd5b503373ffffffffffffffffffffffffffffffffffffffff167f6747c18256028de8cd2fa276e75d6b4193ac34c1b55fa8e71797ac132d32ad39836040518082815260200191505060405180910390a26102e7565b3373ffffffffffffffffffffffffffffffffffffffff167f8dc2b2096831716168cffd747478656d933f1e8e905500aa02153f1c5008c502836040518082815260200191505060405180910390a25b5050565b60006001905060008090505b600280549050811015610479576002818154811061031157fe5b906000526020600020906002020160010160009054906101000a900460ff1661046c5760009150811561034357600080fd5b60005b610355846002805490506107de565b90506002818154811061036457fe5b906000526020600020906002020160010160009054906101000a900460ff16156103465760016002828154811061039757fe5b906000526020600020906002020160010160006101000a81548160ff02191690831515021790555033600282815481106103cd57fe5b906000526020600020906002020160010160026101000a81548173ffffffffffffffffffffffffffffffffffffffff021916908373ffffffffffffffffffffffffffffffffffffffff1602179055503373ffffffffffffffffffffffffffffffffffffffff167fe3d4187f6ca4248660cc0ac8b8056515bac4a8132be2eca31d6d0cc170722a7e826040518082815260200191505060405180910390a2505b80806001019150506102f7565b508061048457600080fd5b60005b610496836002805490506107de565b9050600281815481106104a557fe5b906000526020600020906002020160010160009054906101000a900460ff1615610487576001600282815481106104d857fe5b906000526020600020906002020160010160006101000a81548160ff021916908315150217905550336002828154811061050e57fe5b906000526020600020906002020160010160026101000a81548173ffffffffffffffffffffffffffffffffffffffff021916908373ffffffffffffffffffffffffffffffffffffffff1602179055503373ffffffffffffffffffffffffffffffffffffffff167fe3d4187f6ca4248660cc0ac8b8056515bac4a8132be2eca31d6d0cc170722a7e826040518082815260200191505060405180910390a2505050565b6000809054906101000a900473ffffffffffffffffffffffffffffffffffffffff1673ffffffffffffffffffffffffffffffffffffffff163373ffffffffffffffffffffffffffffffffffffffff161461060957600080fd5b8181111561061657600080fd5b60008090505b828110156107305760026040518060800160405280838152602001600015158152602001600015158152602001600073ffffffffffffffffffffffffffffffffffffffff16815250908060018154018082558091505090600182039060005260206000209060020201600090919290919091506000820151816000015560208201518160010160006101000a81548160ff02191690831515021790555060408201518160010160016101000a81548160ff02191690831515021790555060608201518160010160026101000a81548173ffffffffffffffffffffffffffffffffffffffff021916908373ffffffffffffffffffffffffffffffffffffffff160217905550505050808060010191505061061c565b506000809050600080905060005b838310156107d75761075082856107de565b9050600015156002828154811061076357fe5b906000526020600020906002020160010160019054906101000a900460ff16151514156107d25760016002828154811061079957fe5b906000526020600020906002020160010160016101000a81548160ff021916908315150217905550828060010193505081806001019250505b61073e565b5050505050565b600081423385604051602001808481526020018373ffffffffffffffffffffffffffffffffffffffff1673ffffffffffffffffffffffffffffffffffffffff16815260200182815260200193505050506040516020818303038152906040528051906020012060001c8161084e57fe5b0690509291505056fea265627a7a72315820e5793850c1daed346cb7f654919c5d29692ce8b23aefc5dcbc311fac9fc85dff64736f6c63430005100032",
  "source": "pragma solidity ^0.5.0;\n\ncontract LotteryContract {\n    \n    address public seller;\n    uint prize = 1 ether;\n    struct Lottery {\n        uint lotteryNumber;\n        bool isSold;\n        bool isWon;\n        address purchaser;\n    }\n    Lottery[] lotteryCollection;\n\n    event Buy(address indexed _purcheser, uint _lotteryNumber);\n    event Win(address indexed _purcheser, uint _lotteryNumber);\n    event Reject(address indexed _purcheser, uint _lotteryNumber);\n    \n    constructor () public {\n        seller = msg.sender;\n    }\n    \n    modifier onlySeller {\n        require(msg.sender == seller);\n        _;\n    }\n    \n    modifier onlyPurchaser(uint _lotteryNumber) {\n        require(lotteryCollection[_lotteryNumber].purchaser == msg.sender);\n        _;\n    }\n\n    modifier onlyNotSoldOut {\n        bool isSoldOut = true;\n        for (uint i = 0; i < lotteryCollection.length; i++){\n            if (!lotteryCollection[i].isSold){\n                isSoldOut = false;\n                require(!isSoldOut);\n                _;\n            }\n        }\n        require(isSoldOut);\n        _;\n    }\n    \n    function createLottery(uint _number, uint _winNumber) public onlySeller {\n        require(_winNumber <= _number);\n        for(uint i = 0; i < _number; i++){ lotteryCollection.push(Lottery(i, false, false, address(0))); }\n        uint _counter = 0;\n        uint _randNonce = 0;\n        uint _rand;\n        while (_counter < _winNumber) {\n            _rand = randMod(_randNonce, _winNumber);\n            if (lotteryCollection[_rand].isWon == false){\n                lotteryCollection[_rand].isWon = true;\n                _counter++;\n                _randNonce++;\n            }\n        }\n    }\n    \n    function buy(uint _randNonce) public onlyNotSoldOut {\n        uint _lotteryNumber;\n        do{ _lotteryNumber = randMod(_randNonce, lotteryCollection.length); } while (!lotteryCollection[_lotteryNumber].isSold);\n        lotteryCollection[_lotteryNumber].isSold = true;\n        lotteryCollection[_lotteryNumber].purchaser = msg.sender;\n        emit Buy(msg.sender, _lotteryNumber);\n    }\n  \n    function check(uint _lotteryNumber) public onlyPurchaser(_lotteryNumber) {\n        if (lotteryCollection[_lotteryNumber].isWon) {\n            msg.sender.transfer(prize);\n            emit Win(msg.sender, _lotteryNumber);\n        } else {\n            emit Reject(msg.sender, _lotteryNumber);\n        }\n    }\n    \n    function randMod(uint _randNonce, uint _modulus) internal view returns(uint) {\n        return uint(keccak256(abi.encode(now, msg.sender, _randNonce))) % _modulus;\n    }\n}",
  "sourcePath": "/Users/hmori/dev/hmori/Lottery/contracts/Lottery.sol",
  "compiler": {
    "name": "solc",
    "version": "0.5.16+commit.9c3226ce.Emscripten.clang"
  },
  "schemaVersion": "3.3.3",
  "updatedAt": "2021-01-04T16:56:50.940Z",
  "devdoc": {
    "methods": {}
  },
  "userdoc": {
    "methods": {}
  }
}